{
	"contracts/7702/Multisig7702.sol": {
		"Multisig7702": {
			"abi": [
				{
					"inputs": [],
					"name": "ECDSAInvalidSignature",
					"type": "error"
				},
				{
					"inputs": [
						{
							"internalType": "uint256",
							"name": "length",
							"type": "uint256"
						}
					],
					"name": "ECDSAInvalidSignatureLength",
					"type": "error"
				},
				{
					"inputs": [
						{
							"internalType": "bytes32",
							"name": "s",
							"type": "bytes32"
						}
					],
					"name": "ECDSAInvalidSignatureS",
					"type": "error"
				},
				{
					"inputs": [
						{
							"internalType": "address[]",
							"name": "owners",
							"type": "address[]"
						},
						{
							"internalType": "uint256",
							"name": "threshold",
							"type": "uint256"
						},
						{
							"components": [
								{
									"internalType": "address",
									"name": "to",
									"type": "address"
								},
								{
									"internalType": "uint256",
									"name": "value",
									"type": "uint256"
								},
								{
									"internalType": "bytes",
									"name": "data",
									"type": "bytes"
								}
							],
							"internalType": "struct Multisig7702.TxRequest",
							"name": "txReq",
							"type": "tuple"
						},
						{
							"internalType": "bytes[]",
							"name": "signatures",
							"type": "bytes[]"
						}
					],
					"name": "validate",
					"outputs": [],
					"stateMutability": "pure",
					"type": "function"
				}
			],
			"devdoc": {
				"errors": {
					"ECDSAInvalidSignature()": [
						{
							"details": "The signature derives the `address(0)`."
						}
					],
					"ECDSAInvalidSignatureLength(uint256)": [
						{
							"details": "The signature has an invalid length."
						}
					],
					"ECDSAInvalidSignatureS(bytes32)": [
						{
							"details": "The signature has an S value that is in the upper half order."
						}
					]
				},
				"kind": "dev",
				"methods": {},
				"version": 1
			},
			"evm": {
				"assembly": "    /* \"contracts/7702/Multisig7702.sol\":153:1116  contract Multisig7702 {... */\n  mstore(0x40, 0x80)\n  callvalue\n  dup1\n  iszero\n  tag_1\n  jumpi\n  0x00\n  dup1\n  revert\ntag_1:\n  pop\n  dataSize(sub_0)\n  dup1\n  dataOffset(sub_0)\n  0x00\n  codecopy\n  0x00\n  return\nstop\n\nsub_0: assembly {\n        /* \"contracts/7702/Multisig7702.sol\":153:1116  contract Multisig7702 {... */\n      mstore(0x40, 0x80)\n      callvalue\n      dup1\n      iszero\n      tag_1\n      jumpi\n      0x00\n      dup1\n      revert\n    tag_1:\n      pop\n      jumpi(tag_2, lt(calldatasize, 0x04))\n      shr(0xe0, calldataload(0x00))\n      dup1\n      0x93249d16\n      eq\n      tag_3\n      jumpi\n    tag_2:\n      0x00\n      dup1\n      revert\n        /* \"contracts/7702/Multisig7702.sol\":274:980  function validate(... */\n    tag_3:\n      tag_4\n      tag_5\n      calldatasize\n      0x04\n      tag_6\n      jump\t// in\n    tag_5:\n      tag_7\n      jump\t// in\n    tag_4:\n      stop\n    tag_7:\n        /* \"contracts/7702/Multisig7702.sol\":454:468  bytes32 txHash */\n      0x00\n        /* \"contracts/7702/Multisig7702.sol\":511:519  txReq.to */\n      tag_9\n      0x20\n      dup6\n      add\n        /* \"contracts/7702/Multisig7702.sol\":511:516  txReq */\n      dup6\n        /* \"contracts/7702/Multisig7702.sol\":511:519  txReq.to */\n      tag_10\n      jump\t// in\n    tag_9:\n        /* \"contracts/7702/Multisig7702.sol\":521:532  txReq.value */\n      0x20\n      dup6\n      add\n      calldataload\n        /* \"contracts/7702/Multisig7702.sol\":534:544  txReq.data */\n      tag_11\n      0x40\n      dup8\n      add\n        /* \"contracts/7702/Multisig7702.sol\":521:526  txReq */\n      dup8\n        /* \"contracts/7702/Multisig7702.sol\":534:544  txReq.data */\n      tag_12\n      jump\t// in\n    tag_11:\n        /* \"contracts/7702/Multisig7702.sol\":481:554  abi.encodePacked(... */\n      add(0x20, mload(0x40))\n      tag_13\n      swap5\n      swap4\n      swap3\n      swap2\n      swap1\n      tag_14\n      jump\t// in\n    tag_13:\n      mload(0x40)\n      0x20\n      dup2\n      dup4\n      sub\n      sub\n      dup2\n      mstore\n      swap1\n      0x40\n      mstore\n        /* \"contracts/7702/Multisig7702.sol\":471:555  keccak256(abi.encodePacked(... */\n      dup1\n      mload\n      swap1\n      0x20\n      add\n      keccak256\n        /* \"contracts/7702/Multisig7702.sol\":454:555  bytes32 txHash = keccak256(abi.encodePacked(... */\n      swap1\n      pop\n        /* \"contracts/7702/Multisig7702.sol\":566:582  uint256 sigCount */\n      0x00\n        /* \"contracts/7702/Multisig7702.sol\":601:607  uint i */\n      dup1\n        /* \"contracts/7702/Multisig7702.sol\":596:902  for (uint i = 0; i < signatures.length; i++) {... */\n    tag_15:\n        /* \"contracts/7702/Multisig7702.sol\":613:634  i < signatures.length */\n      dup4\n      dup2\n      lt\n        /* \"contracts/7702/Multisig7702.sol\":596:902  for (uint i = 0; i < signatures.length; i++) {... */\n      iszero\n      tag_16\n      jumpi\n        /* \"contracts/7702/Multisig7702.sol\":655:669  address signer */\n      0x00\n        /* \"contracts/7702/Multisig7702.sol\":672:702  recover(txHash, signatures[i]) */\n      tag_18\n        /* \"contracts/7702/Multisig7702.sol\":680:686  txHash */\n      dup5\n        /* \"contracts/7702/Multisig7702.sol\":688:698  signatures */\n      dup8\n      dup8\n        /* \"contracts/7702/Multisig7702.sol\":699:700  i */\n      dup6\n        /* \"contracts/7702/Multisig7702.sol\":688:701  signatures[i] */\n      dup2\n      dup2\n      lt\n      tag_20\n      jumpi\n      tag_20\n      tag_21\n      jump\t// in\n    tag_20:\n      swap1\n      pop\n      0x20\n      mul\n      dup2\n      add\n      swap1\n      tag_22\n      swap2\n      swap1\n      tag_12\n      jump\t// in\n    tag_22:\n        /* \"contracts/7702/Multisig7702.sol\":672:702  recover(txHash, signatures[i]) */\n      dup1\n      dup1\n      0x1f\n      add\n      0x20\n      dup1\n      swap2\n      div\n      mul\n      0x20\n      add\n      mload(0x40)\n      swap1\n      dup2\n      add\n      0x40\n      mstore\n      dup1\n      swap4\n      swap3\n      swap2\n      swap1\n      dup2\n      dup2\n      mstore\n      0x20\n      add\n      dup4\n      dup4\n      dup1\n      dup3\n      dup5\n      calldatacopy\n      0x00\n      swap3\n      add\n      swap2\n      swap1\n      swap2\n      mstore\n      pop\n        /* \"contracts/7702/Multisig7702.sol\":672:679  recover */\n      tag_23\n      swap3\n      pop\n      pop\n      pop\n        /* \"contracts/7702/Multisig7702.sol\":672:702  recover(txHash, signatures[i]) */\n      jump\t// in\n    tag_18:\n        /* \"contracts/7702/Multisig7702.sol\":655:702  address signer = recover(txHash, signatures[i]) */\n      swap1\n      pop\n        /* \"contracts/7702/Multisig7702.sol\":721:727  uint j */\n      0x00\n        /* \"contracts/7702/Multisig7702.sol\":716:892  for (uint j = 0; j < owners.length; j++) {... */\n    tag_24:\n        /* \"contracts/7702/Multisig7702.sol\":733:750  j < owners.length */\n      dup10\n      dup2\n      lt\n        /* \"contracts/7702/Multisig7702.sol\":716:892  for (uint j = 0; j < owners.length; j++) {... */\n      iszero\n      tag_25\n      jumpi\n        /* \"contracts/7702/Multisig7702.sol\":792:798  signer */\n      dup2\n      sub(shl(0xa0, 0x01), 0x01)\n        /* \"contracts/7702/Multisig7702.sol\":779:798  owners[j] == signer */\n      and\n        /* \"contracts/7702/Multisig7702.sol\":779:785  owners */\n      dup12\n      dup12\n        /* \"contracts/7702/Multisig7702.sol\":786:787  j */\n      dup4\n        /* \"contracts/7702/Multisig7702.sol\":779:788  owners[j] */\n      dup2\n      dup2\n      lt\n      tag_28\n      jumpi\n      tag_28\n      tag_21\n      jump\t// in\n    tag_28:\n      swap1\n      pop\n      0x20\n      mul\n      add\n      0x20\n      dup2\n      add\n      swap1\n      tag_29\n      swap2\n      swap1\n      tag_10\n      jump\t// in\n    tag_29:\n      sub(shl(0xa0, 0x01), 0x01)\n        /* \"contracts/7702/Multisig7702.sol\":779:798  owners[j] == signer */\n      and\n      sub\n        /* \"contracts/7702/Multisig7702.sol\":775:878  if (owners[j] == signer) {... */\n      tag_30\n      jumpi\n        /* \"contracts/7702/Multisig7702.sol\":822:832  sigCount++ */\n      dup4\n      tag_31\n      dup2\n      tag_32\n      jump\t// in\n    tag_31:\n      swap5\n      pop\n      pop\n        /* \"contracts/7702/Multisig7702.sol\":854:859  break */\n      jump(tag_25)\n        /* \"contracts/7702/Multisig7702.sol\":775:878  if (owners[j] == signer) {... */\n    tag_30:\n        /* \"contracts/7702/Multisig7702.sol\":752:755  j++ */\n      0x01\n      add\n        /* \"contracts/7702/Multisig7702.sol\":716:892  for (uint j = 0; j < owners.length; j++) {... */\n      jump(tag_24)\n    tag_25:\n      pop\n      pop\n        /* \"contracts/7702/Multisig7702.sol\":636:639  i++ */\n      0x01\n      add\n        /* \"contracts/7702/Multisig7702.sol\":596:902  for (uint i = 0; i < signatures.length; i++) {... */\n      jump(tag_15)\n    tag_16:\n      pop\n        /* \"contracts/7702/Multisig7702.sol\":932:941  threshold */\n      dup6\n        /* \"contracts/7702/Multisig7702.sol\":920:928  sigCount */\n      dup2\n        /* \"contracts/7702/Multisig7702.sol\":920:941  sigCount >= threshold */\n      lt\n      iszero\n        /* \"contracts/7702/Multisig7702.sol\":912:973  require(sigCount >= threshold, \"Not enough valid signatures\") */\n      tag_33\n      jumpi\n      mload(0x40)\n      shl(0xe5, 0x461bcd)\n      dup2\n      mstore\n        /* \"#utility.yul\":3370:3372   */\n      0x20\n        /* \"contracts/7702/Multisig7702.sol\":912:973  require(sigCount >= threshold, \"Not enough valid signatures\") */\n      0x04\n      dup3\n      add\n        /* \"#utility.yul\":3352:3373   */\n      mstore\n        /* \"#utility.yul\":3409:3411   */\n      0x1b\n        /* \"#utility.yul\":3389:3407   */\n      0x24\n      dup3\n      add\n        /* \"#utility.yul\":3382:3412   */\n      mstore\n        /* \"#utility.yul\":3448:3477   */\n      0x4e6f7420656e6f7567682076616c6964207369676e6174757265730000000000\n        /* \"#utility.yul\":3428:3446   */\n      0x44\n      dup3\n      add\n        /* \"#utility.yul\":3421:3478   */\n      mstore\n        /* \"#utility.yul\":3495:3513   */\n      0x64\n      add\n        /* \"contracts/7702/Multisig7702.sol\":912:973  require(sigCount >= threshold, \"Not enough valid signatures\") */\n    tag_34:\n      mload(0x40)\n      dup1\n      swap2\n      sub\n      swap1\n      revert\n    tag_33:\n        /* \"contracts/7702/Multisig7702.sol\":444:980  {... */\n      pop\n      pop\n        /* \"contracts/7702/Multisig7702.sol\":274:980  function validate(... */\n      pop\n      pop\n      pop\n      pop\n      pop\n      pop\n      jump\t// out\n        /* \"contracts/7702/Multisig7702.sol\":985:1114  function recover(bytes32 hash, bytes memory sig) internal pure returns (address) {... */\n    tag_23:\n        /* \"contracts/7702/Multisig7702.sol\":1057:1064  address */\n      0x00\n        /* \"contracts/7702/Multisig7702.sol\":1083:1107  ECDSA.recover(hash, sig) */\n      tag_37\n        /* \"contracts/7702/Multisig7702.sol\":1097:1101  hash */\n      dup4\n        /* \"contracts/7702/Multisig7702.sol\":1103:1106  sig */\n      dup4\n        /* \"contracts/7702/Multisig7702.sol\":1083:1096  ECDSA.recover */\n      tag_38\n        /* \"contracts/7702/Multisig7702.sol\":1083:1107  ECDSA.recover(hash, sig) */\n      jump\t// in\n    tag_37:\n        /* \"contracts/7702/Multisig7702.sol\":1076:1107  return ECDSA.recover(hash, sig) */\n      swap4\n        /* \"contracts/7702/Multisig7702.sol\":985:1114  function recover(bytes32 hash, bytes memory sig) internal pure returns (address) {... */\n      swap3\n      pop\n      pop\n      pop\n      jump\t// out\n        /* \"@openzeppelin/contracts/utils/cryptography/ECDSA.sol\":3714:3969  function recover(bytes32 hash, bytes memory signature) internal pure returns (address) {... */\n    tag_38:\n        /* \"@openzeppelin/contracts/utils/cryptography/ECDSA.sol\":3792:3799  address */\n      0x00\n        /* \"@openzeppelin/contracts/utils/cryptography/ECDSA.sol\":3812:3829  address recovered */\n      dup1\n        /* \"@openzeppelin/contracts/utils/cryptography/ECDSA.sol\":3831:3849  RecoverError error */\n      0x00\n        /* \"@openzeppelin/contracts/utils/cryptography/ECDSA.sol\":3851:3867  bytes32 errorArg */\n      dup1\n        /* \"@openzeppelin/contracts/utils/cryptography/ECDSA.sol\":3871:3898  tryRecover(hash, signature) */\n      tag_40\n        /* \"@openzeppelin/contracts/utils/cryptography/ECDSA.sol\":3882:3886  hash */\n      dup7\n        /* \"@openzeppelin/contracts/utils/cryptography/ECDSA.sol\":3888:3897  signature */\n      dup7\n        /* \"@openzeppelin/contracts/utils/cryptography/ECDSA.sol\":3871:3881  tryRecover */\n      tag_41\n        /* \"@openzeppelin/contracts/utils/cryptography/ECDSA.sol\":3871:3898  tryRecover(hash, signature) */\n      jump\t// in\n    tag_40:\n        /* \"@openzeppelin/contracts/utils/cryptography/ECDSA.sol\":3811:3898  (address recovered, RecoverError error, bytes32 errorArg) = tryRecover(hash, signature) */\n      swap3\n      pop\n      swap3\n      pop\n      swap3\n      pop\n        /* \"@openzeppelin/contracts/utils/cryptography/ECDSA.sol\":3908:3936  _throwError(error, errorArg) */\n      tag_42\n        /* \"@openzeppelin/contracts/utils/cryptography/ECDSA.sol\":3920:3925  error */\n      dup3\n        /* \"@openzeppelin/contracts/utils/cryptography/ECDSA.sol\":3927:3935  errorArg */\n      dup3\n        /* \"@openzeppelin/contracts/utils/cryptography/ECDSA.sol\":3908:3919  _throwError */\n      tag_43\n        /* \"@openzeppelin/contracts/utils/cryptography/ECDSA.sol\":3908:3936  _throwError(error, errorArg) */\n      jump\t// in\n    tag_42:\n      pop\n        /* \"@openzeppelin/contracts/utils/cryptography/ECDSA.sol\":3953:3962  recovered */\n      swap1\n      swap5\n        /* \"@openzeppelin/contracts/utils/cryptography/ECDSA.sol\":3714:3969  function recover(bytes32 hash, bytes memory signature) internal pure returns (address) {... */\n      swap4\n      pop\n      pop\n      pop\n      pop\n      jump\t// out\n        /* \"@openzeppelin/contracts/utils/cryptography/ECDSA.sol\":2129:2907  function tryRecover(... */\n    tag_41:\n        /* \"@openzeppelin/contracts/utils/cryptography/ECDSA.sol\":2232:2249  address recovered */\n      0x00\n        /* \"@openzeppelin/contracts/utils/cryptography/ECDSA.sol\":2251:2267  RecoverError err */\n      dup1\n        /* \"@openzeppelin/contracts/utils/cryptography/ECDSA.sol\":2269:2283  bytes32 errArg */\n      0x00\n        /* \"@openzeppelin/contracts/utils/cryptography/ECDSA.sol\":2299:2308  signature */\n      dup4\n        /* \"@openzeppelin/contracts/utils/cryptography/ECDSA.sol\":2299:2315  signature.length */\n      mload\n        /* \"@openzeppelin/contracts/utils/cryptography/ECDSA.sol\":2319:2321  65 */\n      0x41\n        /* \"@openzeppelin/contracts/utils/cryptography/ECDSA.sol\":2299:2321  signature.length == 65 */\n      sub\n        /* \"@openzeppelin/contracts/utils/cryptography/ECDSA.sol\":2295:2901  if (signature.length == 65) {... */\n      tag_45\n      jumpi\n        /* \"@openzeppelin/contracts/utils/cryptography/ECDSA.sol\":2604:2608  0x20 */\n      0x20\n        /* \"@openzeppelin/contracts/utils/cryptography/ECDSA.sol\":2589:2609  add(signature, 0x20) */\n      dup5\n      add\n        /* \"@openzeppelin/contracts/utils/cryptography/ECDSA.sol\":2583:2610  mload(add(signature, 0x20)) */\n      mload\n        /* \"@openzeppelin/contracts/utils/cryptography/ECDSA.sol\":2653:2657  0x40 */\n      0x40\n        /* \"@openzeppelin/contracts/utils/cryptography/ECDSA.sol\":2638:2658  add(signature, 0x40) */\n      dup6\n      add\n        /* \"@openzeppelin/contracts/utils/cryptography/ECDSA.sol\":2632:2659  mload(add(signature, 0x40)) */\n      mload\n        /* \"@openzeppelin/contracts/utils/cryptography/ECDSA.sol\":2710:2714  0x60 */\n      0x60\n        /* \"@openzeppelin/contracts/utils/cryptography/ECDSA.sol\":2695:2715  add(signature, 0x60) */\n      dup7\n      add\n        /* \"@openzeppelin/contracts/utils/cryptography/ECDSA.sol\":2689:2716  mload(add(signature, 0x60)) */\n      mload\n        /* \"@openzeppelin/contracts/utils/cryptography/ECDSA.sol\":2337:2346  bytes32 r */\n      0x00\n        /* \"@openzeppelin/contracts/utils/cryptography/ECDSA.sol\":2681:2717  byte(0, mload(add(signature, 0x60))) */\n      byte\n        /* \"@openzeppelin/contracts/utils/cryptography/ECDSA.sol\":2751:2776  tryRecover(hash, v, r, s) */\n      tag_46\n        /* \"@openzeppelin/contracts/utils/cryptography/ECDSA.sol\":2762:2766  hash */\n      dup9\n        /* \"@openzeppelin/contracts/utils/cryptography/ECDSA.sol\":2681:2717  byte(0, mload(add(signature, 0x60))) */\n      dup3\n        /* \"@openzeppelin/contracts/utils/cryptography/ECDSA.sol\":2583:2610  mload(add(signature, 0x20)) */\n      dup6\n        /* \"@openzeppelin/contracts/utils/cryptography/ECDSA.sol\":2632:2659  mload(add(signature, 0x40)) */\n      dup6\n        /* \"@openzeppelin/contracts/utils/cryptography/ECDSA.sol\":2751:2761  tryRecover */\n      tag_47\n        /* \"@openzeppelin/contracts/utils/cryptography/ECDSA.sol\":2751:2776  tryRecover(hash, v, r, s) */\n      jump\t// in\n    tag_46:\n        /* \"@openzeppelin/contracts/utils/cryptography/ECDSA.sol\":2744:2776  return tryRecover(hash, v, r, s) */\n      swap6\n      pop\n      swap6\n      pop\n      swap6\n      pop\n      pop\n      pop\n      pop\n      jump(tag_48)\n        /* \"@openzeppelin/contracts/utils/cryptography/ECDSA.sol\":2295:2901  if (signature.length == 65) {... */\n    tag_45:\n      pop\n      pop\n        /* \"@openzeppelin/contracts/utils/cryptography/ECDSA.sol\":2872:2888  signature.length */\n      dup2\n      mload\n        /* \"@openzeppelin/contracts/utils/cryptography/ECDSA.sol\":2823:2824  0 */\n      0x00\n      swap2\n      pop\n        /* \"@openzeppelin/contracts/utils/cryptography/ECDSA.sol\":2827:2862  RecoverError.InvalidSignatureLength */\n      0x02\n      swap1\n        /* \"@openzeppelin/contracts/utils/cryptography/ECDSA.sol\":2295:2901  if (signature.length == 65) {... */\n    tag_48:\n        /* \"@openzeppelin/contracts/utils/cryptography/ECDSA.sol\":2129:2907  function tryRecover(... */\n      swap3\n      pop\n      swap3\n      pop\n      swap3\n      jump\t// out\n        /* \"@openzeppelin/contracts/utils/cryptography/ECDSA.sol\":7280:7812  function _throwError(RecoverError error, bytes32 errorArg) private pure {... */\n    tag_43:\n        /* \"@openzeppelin/contracts/utils/cryptography/ECDSA.sol\":7375:7395  RecoverError.NoError */\n      0x00\n        /* \"@openzeppelin/contracts/utils/cryptography/ECDSA.sol\":7366:7371  error */\n      dup3\n        /* \"@openzeppelin/contracts/utils/cryptography/ECDSA.sol\":7366:7395  error == RecoverError.NoError */\n      0x03\n      dup2\n      gt\n      iszero\n      tag_54\n      jumpi\n      tag_54\n      tag_52\n      jump\t// in\n    tag_54:\n      sub\n        /* \"@openzeppelin/contracts/utils/cryptography/ECDSA.sol\":7362:7806  if (error == RecoverError.NoError) {... */\n      tag_55\n      jumpi\n        /* \"@openzeppelin/contracts/utils/cryptography/ECDSA.sol\":7280:7812  function _throwError(RecoverError error, bytes32 errorArg) private pure {... */\n      pop\n      pop\n      jump\t// out\n        /* \"@openzeppelin/contracts/utils/cryptography/ECDSA.sol\":7362:7806  if (error == RecoverError.NoError) {... */\n    tag_55:\n        /* \"@openzeppelin/contracts/utils/cryptography/ECDSA.sol\":7471:7500  RecoverError.InvalidSignature */\n      0x01\n        /* \"@openzeppelin/contracts/utils/cryptography/ECDSA.sol\":7462:7467  error */\n      dup3\n        /* \"@openzeppelin/contracts/utils/cryptography/ECDSA.sol\":7462:7500  error == RecoverError.InvalidSignature */\n      0x03\n      dup2\n      gt\n      iszero\n      tag_60\n      jumpi\n      tag_60\n      tag_52\n      jump\t// in\n    tag_60:\n      sub\n        /* \"@openzeppelin/contracts/utils/cryptography/ECDSA.sol\":7458:7806  if (error == RecoverError.InvalidSignature) {... */\n      tag_61\n      jumpi\n        /* \"@openzeppelin/contracts/utils/cryptography/ECDSA.sol\":7523:7546  ECDSAInvalidSignature() */\n      mload(0x40)\n      shl(0xe0, 0xf645eedf)\n      dup2\n      mstore\n      0x04\n      add\n      mload(0x40)\n      dup1\n      swap2\n      sub\n      swap1\n      revert\n        /* \"@openzeppelin/contracts/utils/cryptography/ECDSA.sol\":7458:7806  if (error == RecoverError.InvalidSignature) {... */\n    tag_61:\n        /* \"@openzeppelin/contracts/utils/cryptography/ECDSA.sol\":7576:7611  RecoverError.InvalidSignatureLength */\n      0x02\n        /* \"@openzeppelin/contracts/utils/cryptography/ECDSA.sol\":7567:7572  error */\n      dup3\n        /* \"@openzeppelin/contracts/utils/cryptography/ECDSA.sol\":7567:7611  error == RecoverError.InvalidSignatureLength */\n      0x03\n      dup2\n      gt\n      iszero\n      tag_66\n      jumpi\n      tag_66\n      tag_52\n      jump\t// in\n    tag_66:\n      sub\n        /* \"@openzeppelin/contracts/utils/cryptography/ECDSA.sol\":7563:7806  if (error == RecoverError.InvalidSignatureLength) {... */\n      tag_67\n      jumpi\n        /* \"@openzeppelin/contracts/utils/cryptography/ECDSA.sol\":7634:7680  ECDSAInvalidSignatureLength(uint256(errorArg)) */\n      mload(0x40)\n      shl(0xe0, 0xfce698f7)\n      dup2\n      mstore\n      0x04\n      dup2\n      add\n        /* \"#utility.yul\":3802:3827   */\n      dup3\n      swap1\n      mstore\n        /* \"#utility.yul\":3775:3793   */\n      0x24\n      add\n        /* \"@openzeppelin/contracts/utils/cryptography/ECDSA.sol\":7634:7680  ECDSAInvalidSignatureLength(uint256(errorArg)) */\n      tag_34\n        /* \"#utility.yul\":3656:3833   */\n      jump\n        /* \"@openzeppelin/contracts/utils/cryptography/ECDSA.sol\":7563:7806  if (error == RecoverError.InvalidSignatureLength) {... */\n    tag_67:\n        /* \"@openzeppelin/contracts/utils/cryptography/ECDSA.sol\":7710:7740  RecoverError.InvalidSignatureS */\n      0x03\n        /* \"@openzeppelin/contracts/utils/cryptography/ECDSA.sol\":7701:7706  error */\n      dup3\n        /* \"@openzeppelin/contracts/utils/cryptography/ECDSA.sol\":7701:7740  error == RecoverError.InvalidSignatureS */\n      0x03\n      dup2\n      gt\n      iszero\n      tag_74\n      jumpi\n      tag_74\n      tag_52\n      jump\t// in\n    tag_74:\n      sub\n        /* \"@openzeppelin/contracts/utils/cryptography/ECDSA.sol\":7697:7806  if (error == RecoverError.InvalidSignatureS) {... */\n      tag_75\n      jumpi\n        /* \"@openzeppelin/contracts/utils/cryptography/ECDSA.sol\":7763:7795  ECDSAInvalidSignatureS(errorArg) */\n      mload(0x40)\n      shl(0xe2, 0x35e2f383)\n      dup2\n      mstore\n      0x04\n      dup2\n      add\n        /* \"#utility.yul\":3802:3827   */\n      dup3\n      swap1\n      mstore\n        /* \"#utility.yul\":3775:3793   */\n      0x24\n      add\n        /* \"@openzeppelin/contracts/utils/cryptography/ECDSA.sol\":7763:7795  ECDSAInvalidSignatureS(errorArg) */\n      tag_34\n        /* \"#utility.yul\":3656:3833   */\n      jump\n        /* \"@openzeppelin/contracts/utils/cryptography/ECDSA.sol\":7697:7806  if (error == RecoverError.InvalidSignatureS) {... */\n    tag_75:\n        /* \"@openzeppelin/contracts/utils/cryptography/ECDSA.sol\":7280:7812  function _throwError(RecoverError error, bytes32 errorArg) private pure {... */\n      pop\n      pop\n      jump\t// out\n        /* \"@openzeppelin/contracts/utils/cryptography/ECDSA.sol\":5203:6754  function tryRecover(... */\n    tag_47:\n        /* \"@openzeppelin/contracts/utils/cryptography/ECDSA.sol\":5329:5346  address recovered */\n      0x00\n      dup1\n      dup1\n        /* \"@openzeppelin/contracts/utils/cryptography/ECDSA.sol\":6283:6349  0x7FFFFFFFFFFFFFFFFFFFFFFFFFFFFFFF5D576E7357A4501DDFE92F46681B20A0 */\n      0x7fffffffffffffffffffffffffffffff5d576e7357a4501ddfe92f46681b20a0\n        /* \"@openzeppelin/contracts/utils/cryptography/ECDSA.sol\":6270:6349  uint256(s) > 0x7FFFFFFFFFFFFFFFFFFFFFFFFFFFFFFF5D576E7357A4501DDFE92F46681B20A0 */\n      dup5\n      gt\n        /* \"@openzeppelin/contracts/utils/cryptography/ECDSA.sol\":6266:6430  if (uint256(s) > 0x7FFFFFFFFFFFFFFFFFFFFFFFFFFFFFFF5D576E7357A4501DDFE92F46681B20A0) {... */\n      iszero\n      tag_79\n      jumpi\n      pop\n        /* \"@openzeppelin/contracts/utils/cryptography/ECDSA.sol\":6381:6382  0 */\n      0x00\n      swap2\n      pop\n        /* \"@openzeppelin/contracts/utils/cryptography/ECDSA.sol\":6385:6415  RecoverError.InvalidSignatureS */\n      0x03\n      swap1\n      pop\n        /* \"@openzeppelin/contracts/utils/cryptography/ECDSA.sol\":6417:6418  s */\n      dup3\n        /* \"@openzeppelin/contracts/utils/cryptography/ECDSA.sol\":6365:6419  return (address(0), RecoverError.InvalidSignatureS, s) */\n      jump(tag_78)\n        /* \"@openzeppelin/contracts/utils/cryptography/ECDSA.sol\":6266:6430  if (uint256(s) > 0x7FFFFFFFFFFFFFFFFFFFFFFFFFFFFFFF5D576E7357A4501DDFE92F46681B20A0) {... */\n    tag_79:\n        /* \"@openzeppelin/contracts/utils/cryptography/ECDSA.sol\":6541:6565  ecrecover(hash, v, r, s) */\n      0x40\n      dup1\n      mload\n        /* \"@openzeppelin/contracts/utils/cryptography/ECDSA.sol\":6524:6538  address signer */\n      0x00\n        /* \"@openzeppelin/contracts/utils/cryptography/ECDSA.sol\":6541:6565  ecrecover(hash, v, r, s) */\n      dup1\n      dup3\n      mstore\n      0x20\n      dup3\n      add\n      dup1\n      dup5\n      mstore\n        /* \"#utility.yul\":4247:4272   */\n      dup11\n      swap1\n      mstore\n        /* \"#utility.yul\":4320:4324   */\n      0xff\n        /* \"#utility.yul\":4308:4325   */\n      dup10\n      and\n        /* \"#utility.yul\":4288:4306   */\n      swap3\n      dup3\n      add\n        /* \"#utility.yul\":4281:4326   */\n      swap3\n      swap1\n      swap3\n      mstore\n        /* \"#utility.yul\":4342:4360   */\n      0x60\n      dup2\n      add\n        /* \"#utility.yul\":4335:4369   */\n      dup8\n      swap1\n      mstore\n        /* \"#utility.yul\":4385:4403   */\n      0x80\n      dup2\n      add\n        /* \"#utility.yul\":4378:4412   */\n      dup7\n      swap1\n      mstore\n        /* \"@openzeppelin/contracts/utils/cryptography/ECDSA.sol\":6541:6565  ecrecover(hash, v, r, s) */\n      0x01\n      swap1\n        /* \"#utility.yul\":4219:4238   */\n      0xa0\n      add\n        /* \"@openzeppelin/contracts/utils/cryptography/ECDSA.sol\":6541:6565  ecrecover(hash, v, r, s) */\n      0x20\n      mload(0x40)\n      0x20\n      dup2\n      sub\n      swap1\n      dup1\n      dup5\n      sub\n      swap1\n      dup6\n      gas\n      staticcall\n      iszero\n      dup1\n      iszero\n      tag_83\n      jumpi\n      returndatasize\n      0x00\n      dup1\n      returndatacopy\n      revert(0x00, returndatasize)\n    tag_83:\n      pop\n      pop\n      mload(add(not(0x1f), mload(0x40)))\n      swap2\n      pop\n      pop\n      sub(shl(0xa0, 0x01), 0x01)\n        /* \"@openzeppelin/contracts/utils/cryptography/ECDSA.sol\":6579:6599  signer == address(0) */\n      dup2\n      and\n        /* \"@openzeppelin/contracts/utils/cryptography/ECDSA.sol\":6575:6688  if (signer == address(0)) {... */\n      tag_84\n      jumpi\n      pop\n        /* \"@openzeppelin/contracts/utils/cryptography/ECDSA.sol\":6631:6632  0 */\n      0x00\n      swap3\n      pop\n        /* \"@openzeppelin/contracts/utils/cryptography/ECDSA.sol\":6635:6664  RecoverError.InvalidSignature */\n      0x01\n      swap2\n      pop\n        /* \"@openzeppelin/contracts/utils/cryptography/ECDSA.sol\":6631:6632  0 */\n      dup3\n      swap1\n      pop\n        /* \"@openzeppelin/contracts/utils/cryptography/ECDSA.sol\":6615:6677  return (address(0), RecoverError.InvalidSignature, bytes32(0)) */\n      jump(tag_78)\n        /* \"@openzeppelin/contracts/utils/cryptography/ECDSA.sol\":6575:6688  if (signer == address(0)) {... */\n    tag_84:\n        /* \"@openzeppelin/contracts/utils/cryptography/ECDSA.sol\":6706:6712  signer */\n      swap3\n      pop\n        /* \"@openzeppelin/contracts/utils/cryptography/ECDSA.sol\":6714:6734  RecoverError.NoError */\n      0x00\n      swap2\n      pop\n      dup2\n      swap1\n      pop\n        /* \"@openzeppelin/contracts/utils/cryptography/ECDSA.sol\":5203:6754  function tryRecover(... */\n    tag_78:\n      swap5\n      pop\n      swap5\n      pop\n      swap5\n      swap2\n      pop\n      pop\n      jump\t// out\n        /* \"#utility.yul\":14:381   */\n    tag_85:\n        /* \"#utility.yul\":77:85   */\n      0x00\n        /* \"#utility.yul\":87:93   */\n      dup1\n        /* \"#utility.yul\":141:144   */\n      dup4\n        /* \"#utility.yul\":134:138   */\n      0x1f\n        /* \"#utility.yul\":126:132   */\n      dup5\n        /* \"#utility.yul\":122:139   */\n      add\n        /* \"#utility.yul\":118:145   */\n      slt\n        /* \"#utility.yul\":108:163   */\n      tag_88\n      jumpi\n        /* \"#utility.yul\":159:160   */\n      0x00\n        /* \"#utility.yul\":156:157   */\n      dup1\n        /* \"#utility.yul\":149:161   */\n      revert\n        /* \"#utility.yul\":108:163   */\n    tag_88:\n      pop\n        /* \"#utility.yul\":182:202   */\n      dup2\n      calldataload\n        /* \"#utility.yul\":225:243   */\n      0xffffffffffffffff\n        /* \"#utility.yul\":214:244   */\n      dup2\n      gt\n        /* \"#utility.yul\":211:261   */\n      iszero\n      tag_89\n      jumpi\n        /* \"#utility.yul\":257:258   */\n      0x00\n        /* \"#utility.yul\":254:255   */\n      dup1\n        /* \"#utility.yul\":247:259   */\n      revert\n        /* \"#utility.yul\":211:261   */\n    tag_89:\n        /* \"#utility.yul\":294:298   */\n      0x20\n        /* \"#utility.yul\":286:292   */\n      dup4\n        /* \"#utility.yul\":282:299   */\n      add\n        /* \"#utility.yul\":270:299   */\n      swap2\n      pop\n        /* \"#utility.yul\":354:357   */\n      dup4\n        /* \"#utility.yul\":347:351   */\n      0x20\n        /* \"#utility.yul\":337:343   */\n      dup3\n        /* \"#utility.yul\":334:335   */\n      0x05\n        /* \"#utility.yul\":330:344   */\n      shl\n        /* \"#utility.yul\":322:328   */\n      dup6\n        /* \"#utility.yul\":318:345   */\n      add\n        /* \"#utility.yul\":314:352   */\n      add\n        /* \"#utility.yul\":311:358   */\n      gt\n        /* \"#utility.yul\":308:375   */\n      iszero\n      tag_90\n      jumpi\n        /* \"#utility.yul\":371:372   */\n      0x00\n        /* \"#utility.yul\":368:369   */\n      dup1\n        /* \"#utility.yul\":361:373   */\n      revert\n        /* \"#utility.yul\":308:375   */\n    tag_90:\n        /* \"#utility.yul\":14:381   */\n      swap3\n      pop\n      swap3\n      swap1\n      pop\n      jump\t// out\n        /* \"#utility.yul\":386:1515   */\n    tag_6:\n        /* \"#utility.yul\":565:571   */\n      0x00\n        /* \"#utility.yul\":573:579   */\n      dup1\n        /* \"#utility.yul\":581:587   */\n      0x00\n        /* \"#utility.yul\":589:595   */\n      dup1\n        /* \"#utility.yul\":597:603   */\n      0x00\n        /* \"#utility.yul\":605:611   */\n      dup1\n        /* \"#utility.yul\":658:661   */\n      0x80\n        /* \"#utility.yul\":646:655   */\n      dup8\n        /* \"#utility.yul\":637:644   */\n      dup10\n        /* \"#utility.yul\":633:656   */\n      sub\n        /* \"#utility.yul\":629:662   */\n      slt\n        /* \"#utility.yul\":626:679   */\n      iszero\n      tag_92\n      jumpi\n        /* \"#utility.yul\":675:676   */\n      0x00\n        /* \"#utility.yul\":672:673   */\n      dup1\n        /* \"#utility.yul\":665:677   */\n      revert\n        /* \"#utility.yul\":626:679   */\n    tag_92:\n        /* \"#utility.yul\":715:724   */\n      dup7\n        /* \"#utility.yul\":702:725   */\n      calldataload\n        /* \"#utility.yul\":748:766   */\n      0xffffffffffffffff\n        /* \"#utility.yul\":740:746   */\n      dup2\n        /* \"#utility.yul\":737:767   */\n      gt\n        /* \"#utility.yul\":734:784   */\n      iszero\n      tag_93\n      jumpi\n        /* \"#utility.yul\":780:781   */\n      0x00\n        /* \"#utility.yul\":777:778   */\n      dup1\n        /* \"#utility.yul\":770:782   */\n      revert\n        /* \"#utility.yul\":734:784   */\n    tag_93:\n        /* \"#utility.yul\":819:889   */\n      tag_94\n        /* \"#utility.yul\":881:888   */\n      dup10\n        /* \"#utility.yul\":872:878   */\n      dup3\n        /* \"#utility.yul\":861:870   */\n      dup11\n        /* \"#utility.yul\":857:879   */\n      add\n        /* \"#utility.yul\":819:889   */\n      tag_85\n      jump\t// in\n    tag_94:\n        /* \"#utility.yul\":908:916   */\n      swap1\n      swap8\n      pop\n        /* \"#utility.yul\":793:889   */\n      swap6\n      pop\n      pop\n        /* \"#utility.yul\":990:992   */\n      0x20\n        /* \"#utility.yul\":975:993   */\n      dup8\n      add\n        /* \"#utility.yul\":962:994   */\n      calldataload\n      swap4\n      pop\n        /* \"#utility.yul\":1047:1049   */\n      0x40\n        /* \"#utility.yul\":1032:1050   */\n      dup8\n      add\n        /* \"#utility.yul\":1019:1051   */\n      calldataload\n        /* \"#utility.yul\":1076:1094   */\n      0xffffffffffffffff\n        /* \"#utility.yul\":1063:1095   */\n      dup2\n      gt\n        /* \"#utility.yul\":1060:1112   */\n      iszero\n      tag_95\n      jumpi\n        /* \"#utility.yul\":1108:1109   */\n      0x00\n        /* \"#utility.yul\":1105:1106   */\n      dup1\n        /* \"#utility.yul\":1098:1110   */\n      revert\n        /* \"#utility.yul\":1060:1112   */\n    tag_95:\n        /* \"#utility.yul\":1131:1155   */\n      dup8\n      add\n        /* \"#utility.yul\":1189:1191   */\n      0x60\n        /* \"#utility.yul\":1171:1187   */\n      dup2\n      dup11\n      sub\n        /* \"#utility.yul\":1167:1192   */\n      slt\n        /* \"#utility.yul\":1164:1209   */\n      iszero\n      tag_96\n      jumpi\n        /* \"#utility.yul\":1205:1206   */\n      0x00\n        /* \"#utility.yul\":1202:1203   */\n      dup1\n        /* \"#utility.yul\":1195:1207   */\n      revert\n        /* \"#utility.yul\":1164:1209   */\n    tag_96:\n        /* \"#utility.yul\":1228:1230   */\n      swap3\n      pop\n        /* \"#utility.yul\":1283:1285   */\n      0x60\n        /* \"#utility.yul\":1268:1286   */\n      dup8\n      add\n        /* \"#utility.yul\":1255:1287   */\n      calldataload\n        /* \"#utility.yul\":1312:1330   */\n      0xffffffffffffffff\n        /* \"#utility.yul\":1299:1331   */\n      dup2\n      gt\n        /* \"#utility.yul\":1296:1348   */\n      iszero\n      tag_97\n      jumpi\n        /* \"#utility.yul\":1344:1345   */\n      0x00\n        /* \"#utility.yul\":1341:1342   */\n      dup1\n        /* \"#utility.yul\":1334:1346   */\n      revert\n        /* \"#utility.yul\":1296:1348   */\n    tag_97:\n        /* \"#utility.yul\":1383:1455   */\n      tag_98\n        /* \"#utility.yul\":1447:1454   */\n      dup10\n        /* \"#utility.yul\":1436:1444   */\n      dup3\n        /* \"#utility.yul\":1425:1434   */\n      dup11\n        /* \"#utility.yul\":1421:1445   */\n      add\n        /* \"#utility.yul\":1383:1455   */\n      tag_85\n      jump\t// in\n    tag_98:\n        /* \"#utility.yul\":386:1515   */\n      swap8\n      swap11\n      swap7\n      swap10\n      pop\n      swap5\n      swap8\n      pop\n      swap3\n      swap6\n        /* \"#utility.yul\":1474:1482   */\n      swap4\n      swap5\n        /* \"#utility.yul\":386:1515   */\n      swap3\n      pop\n      pop\n      pop\n      jump\t// out\n        /* \"#utility.yul\":1520:1806   */\n    tag_10:\n        /* \"#utility.yul\":1579:1585   */\n      0x00\n        /* \"#utility.yul\":1632:1634   */\n      0x20\n        /* \"#utility.yul\":1620:1629   */\n      dup3\n        /* \"#utility.yul\":1611:1618   */\n      dup5\n        /* \"#utility.yul\":1607:1630   */\n      sub\n        /* \"#utility.yul\":1603:1635   */\n      slt\n        /* \"#utility.yul\":1600:1652   */\n      iszero\n      tag_100\n      jumpi\n        /* \"#utility.yul\":1648:1649   */\n      0x00\n        /* \"#utility.yul\":1645:1646   */\n      dup1\n        /* \"#utility.yul\":1638:1650   */\n      revert\n        /* \"#utility.yul\":1600:1652   */\n    tag_100:\n        /* \"#utility.yul\":1674:1697   */\n      dup2\n      calldataload\n      sub(shl(0xa0, 0x01), 0x01)\n        /* \"#utility.yul\":1726:1757   */\n      dup2\n      and\n        /* \"#utility.yul\":1716:1758   */\n      dup2\n      eq\n        /* \"#utility.yul\":1706:1776   */\n      tag_37\n      jumpi\n        /* \"#utility.yul\":1772:1773   */\n      0x00\n        /* \"#utility.yul\":1769:1770   */\n      dup1\n        /* \"#utility.yul\":1762:1774   */\n      revert\n        /* \"#utility.yul\":1811:2332   */\n    tag_12:\n        /* \"#utility.yul\":1888:1892   */\n      0x00\n        /* \"#utility.yul\":1894:1900   */\n      dup1\n        /* \"#utility.yul\":1954:1965   */\n      dup4\n        /* \"#utility.yul\":1941:1966   */\n      calldataload\n        /* \"#utility.yul\":2048:2050   */\n      0x1e\n        /* \"#utility.yul\":2044:2051   */\n      not\n        /* \"#utility.yul\":2033:2041   */\n      dup5\n        /* \"#utility.yul\":2017:2031   */\n      calldatasize\n        /* \"#utility.yul\":2013:2042   */\n      sub\n        /* \"#utility.yul\":2009:2052   */\n      add\n        /* \"#utility.yul\":1989:2007   */\n      dup2\n        /* \"#utility.yul\":1985:2053   */\n      slt\n        /* \"#utility.yul\":1975:2071   */\n      tag_103\n      jumpi\n        /* \"#utility.yul\":2067:2068   */\n      0x00\n        /* \"#utility.yul\":2064:2065   */\n      dup1\n        /* \"#utility.yul\":2057:2069   */\n      revert\n        /* \"#utility.yul\":1975:2071   */\n    tag_103:\n        /* \"#utility.yul\":2094:2127   */\n      dup4\n      add\n        /* \"#utility.yul\":2146:2166   */\n      dup1\n      calldataload\n      swap2\n      pop\n        /* \"#utility.yul\":2189:2207   */\n      0xffffffffffffffff\n        /* \"#utility.yul\":2178:2208   */\n      dup3\n      gt\n        /* \"#utility.yul\":2175:2225   */\n      iszero\n      tag_104\n      jumpi\n        /* \"#utility.yul\":2221:2222   */\n      0x00\n        /* \"#utility.yul\":2218:2219   */\n      dup1\n        /* \"#utility.yul\":2211:2223   */\n      revert\n        /* \"#utility.yul\":2175:2225   */\n    tag_104:\n        /* \"#utility.yul\":2254:2258   */\n      0x20\n        /* \"#utility.yul\":2242:2259   */\n      add\n      swap2\n      pop\n        /* \"#utility.yul\":2285:2299   */\n      calldatasize\n        /* \"#utility.yul\":2281:2308   */\n      dup2\n      swap1\n      sub\n        /* \"#utility.yul\":2271:2309   */\n      dup3\n      sgt\n        /* \"#utility.yul\":2268:2326   */\n      iszero\n      tag_90\n      jumpi\n        /* \"#utility.yul\":2322:2323   */\n      0x00\n        /* \"#utility.yul\":2319:2320   */\n      dup1\n        /* \"#utility.yul\":2312:2324   */\n      revert\n        /* \"#utility.yul\":2337:2794   */\n    tag_14:\n        /* \"#utility.yul\":2587:2613   */\n      0xffffffffffffffffffffffff\n        /* \"#utility.yul\":2583:2614   */\n      not\n        /* \"#utility.yul\":2574:2580   */\n      dup6\n        /* \"#utility.yul\":2570:2572   */\n      0x60\n        /* \"#utility.yul\":2566:2581   */\n      shl\n        /* \"#utility.yul\":2562:2615   */\n      and\n        /* \"#utility.yul\":2557:2560   */\n      dup2\n        /* \"#utility.yul\":2550:2616   */\n      mstore\n        /* \"#utility.yul\":2646:2652   */\n      dup4\n        /* \"#utility.yul\":2641:2643   */\n      0x14\n        /* \"#utility.yul\":2636:2639   */\n      dup3\n        /* \"#utility.yul\":2632:2644   */\n      add\n        /* \"#utility.yul\":2625:2653   */\n      mstore\n        /* \"#utility.yul\":2697:2703   */\n      dup2\n        /* \"#utility.yul\":2689:2695   */\n      dup4\n        /* \"#utility.yul\":2684:2686   */\n      0x34\n        /* \"#utility.yul\":2679:2682   */\n      dup4\n        /* \"#utility.yul\":2675:2687   */\n      add\n        /* \"#utility.yul\":2662:2704   */\n      calldatacopy\n        /* \"#utility.yul\":2532:2535   */\n      0x00\n        /* \"#utility.yul\":2727:2743   */\n      swap2\n      add\n        /* \"#utility.yul\":2745:2747   */\n      0x34\n        /* \"#utility.yul\":2723:2748   */\n      add\n        /* \"#utility.yul\":2757:2770   */\n      swap1\n      dup2\n      mstore\n        /* \"#utility.yul\":2723:2748   */\n      swap4\n        /* \"#utility.yul\":2337:2794   */\n      swap3\n      pop\n      pop\n      pop\n      jump\t// out\n        /* \"#utility.yul\":2799:2926   */\n    tag_21:\n        /* \"#utility.yul\":2860:2870   */\n      0x4e487b71\n        /* \"#utility.yul\":2855:2858   */\n      0xe0\n        /* \"#utility.yul\":2851:2871   */\n      shl\n        /* \"#utility.yul\":2848:2849   */\n      0x00\n        /* \"#utility.yul\":2841:2872   */\n      mstore\n        /* \"#utility.yul\":2891:2895   */\n      0x32\n        /* \"#utility.yul\":2888:2889   */\n      0x04\n        /* \"#utility.yul\":2881:2896   */\n      mstore\n        /* \"#utility.yul\":2915:2919   */\n      0x24\n        /* \"#utility.yul\":2912:2913   */\n      0x00\n        /* \"#utility.yul\":2905:2920   */\n      revert\n        /* \"#utility.yul\":2931:3163   */\n    tag_32:\n        /* \"#utility.yul\":2970:2973   */\n      0x00\n        /* \"#utility.yul\":2991:3008   */\n      0x01\n      dup3\n      add\n        /* \"#utility.yul\":2988:3128   */\n      tag_109\n      jumpi\n        /* \"#utility.yul\":3050:3060   */\n      0x4e487b71\n        /* \"#utility.yul\":3045:3048   */\n      0xe0\n        /* \"#utility.yul\":3041:3061   */\n      shl\n        /* \"#utility.yul\":3038:3039   */\n      0x00\n        /* \"#utility.yul\":3031:3062   */\n      mstore\n        /* \"#utility.yul\":3085:3089   */\n      0x11\n        /* \"#utility.yul\":3082:3083   */\n      0x04\n        /* \"#utility.yul\":3075:3090   */\n      mstore\n        /* \"#utility.yul\":3113:3117   */\n      0x24\n        /* \"#utility.yul\":3110:3111   */\n      0x00\n        /* \"#utility.yul\":3103:3118   */\n      revert\n        /* \"#utility.yul\":2988:3128   */\n    tag_109:\n      pop\n        /* \"#utility.yul\":3155:3156   */\n      0x01\n        /* \"#utility.yul\":3144:3157   */\n      add\n      swap1\n        /* \"#utility.yul\":2931:3163   */\n      jump\t// out\n        /* \"#utility.yul\":3524:3651   */\n    tag_52:\n        /* \"#utility.yul\":3585:3595   */\n      0x4e487b71\n        /* \"#utility.yul\":3580:3583   */\n      0xe0\n        /* \"#utility.yul\":3576:3596   */\n      shl\n        /* \"#utility.yul\":3573:3574   */\n      0x00\n        /* \"#utility.yul\":3566:3597   */\n      mstore\n        /* \"#utility.yul\":3616:3620   */\n      0x21\n        /* \"#utility.yul\":3613:3614   */\n      0x04\n        /* \"#utility.yul\":3606:3621   */\n      mstore\n        /* \"#utility.yul\":3640:3644   */\n      0x24\n        /* \"#utility.yul\":3637:3638   */\n      0x00\n        /* \"#utility.yul\":3630:3645   */\n      revert\n\n    auxdata: 0xa2646970667358221220f525868c7e484ec1a2e43534c816201476f3262f3d7f4fe18a936ddfb7660b7a64736f6c634300081a0033\n}\n",
				"bytecode": {
					"linkReferences": {},
					"object": "6080604052348015600e575f80fd5b506105dc8061001c5f395ff3fe608060405234801561000f575f80fd5b5060043610610029575f3560e01c806393249d161461002d575b5f80fd5b61004061003b366004610418565b610042565b005b5f61005060208501856104bf565b602085013561006260408701876104e5565b6040516020016100759493929190610528565b6040516020818303038152906040528051906020012090505f805b83811015610169575f6100fa848787858181106100af576100af61055a565b90506020028101906100c191906104e5565b8080601f0160208091040260200160405190810160405280939291908181526020018383808284375f920191909152506101c992505050565b90505f5b8981101561015f57816001600160a01b03168b8b838181106101225761012261055a565b905060200201602081019061013791906104bf565b6001600160a01b031603610157578361014f8161056e565b94505061015f565b6001016100fe565b5050600101610090565b50858110156101bf5760405162461bcd60e51b815260206004820152601b60248201527f4e6f7420656e6f7567682076616c6964207369676e617475726573000000000060448201526064015b60405180910390fd5b5050505050505050565b5f6101d483836101db565b9392505050565b5f805f806101e98686610203565b9250925092506101f9828261024c565b5090949350505050565b5f805f835160410361023a576020840151604085015160608601515f1a61022c88828585610308565b955095509550505050610245565b505081515f91506002905b9250925092565b5f82600381111561025f5761025f610592565b03610268575050565b600182600381111561027c5761027c610592565b0361029a5760405163f645eedf60e01b815260040160405180910390fd5b60028260038111156102ae576102ae610592565b036102cf5760405163fce698f760e01b8152600481018290526024016101b6565b60038260038111156102e3576102e3610592565b03610304576040516335e2f38360e21b8152600481018290526024016101b6565b5050565b5f80807f7fffffffffffffffffffffffffffffff5d576e7357a4501ddfe92f46681b20a084111561034157505f915060039050826103c6565b604080515f808252602082018084528a905260ff891692820192909252606081018790526080810186905260019060a0016020604051602081039080840390855afa158015610392573d5f803e3d5ffd5b5050604051601f1901519150506001600160a01b0381166103bd57505f9250600191508290506103c6565b92505f91508190505b9450945094915050565b5f8083601f8401126103e0575f80fd5b50813567ffffffffffffffff8111156103f7575f80fd5b6020830191508360208260051b8501011115610411575f80fd5b9250929050565b5f805f805f806080878903121561042d575f80fd5b863567ffffffffffffffff811115610443575f80fd5b61044f89828a016103d0565b90975095505060208701359350604087013567ffffffffffffffff811115610475575f80fd5b87016060818a031215610486575f80fd5b9250606087013567ffffffffffffffff8111156104a1575f80fd5b6104ad89828a016103d0565b979a9699509497509295939492505050565b5f602082840312156104cf575f80fd5b81356001600160a01b03811681146101d4575f80fd5b5f808335601e198436030181126104fa575f80fd5b83018035915067ffffffffffffffff821115610514575f80fd5b602001915036819003821315610411575f80fd5b6bffffffffffffffffffffffff198560601b168152836014820152818360348301375f91016034019081529392505050565b634e487b7160e01b5f52603260045260245ffd5b5f6001820161058b57634e487b7160e01b5f52601160045260245ffd5b5060010190565b634e487b7160e01b5f52602160045260245ffdfea2646970667358221220f525868c7e484ec1a2e43534c816201476f3262f3d7f4fe18a936ddfb7660b7a64736f6c634300081a0033",
					"opcodes": "PUSH1 0x80 PUSH1 0x40 MSTORE CALLVALUE DUP1 ISZERO PUSH1 0xE JUMPI PUSH0 DUP1 REVERT JUMPDEST POP PUSH2 0x5DC DUP1 PUSH2 0x1C PUSH0 CODECOPY PUSH0 RETURN INVALID PUSH1 0x80 PUSH1 0x40 MSTORE CALLVALUE DUP1 ISZERO PUSH2 0xF JUMPI PUSH0 DUP1 REVERT JUMPDEST POP PUSH1 0x4 CALLDATASIZE LT PUSH2 0x29 JUMPI PUSH0 CALLDATALOAD PUSH1 0xE0 SHR DUP1 PUSH4 0x93249D16 EQ PUSH2 0x2D JUMPI JUMPDEST PUSH0 DUP1 REVERT JUMPDEST PUSH2 0x40 PUSH2 0x3B CALLDATASIZE PUSH1 0x4 PUSH2 0x418 JUMP JUMPDEST PUSH2 0x42 JUMP JUMPDEST STOP JUMPDEST PUSH0 PUSH2 0x50 PUSH1 0x20 DUP6 ADD DUP6 PUSH2 0x4BF JUMP JUMPDEST PUSH1 0x20 DUP6 ADD CALLDATALOAD PUSH2 0x62 PUSH1 0x40 DUP8 ADD DUP8 PUSH2 0x4E5 JUMP JUMPDEST PUSH1 0x40 MLOAD PUSH1 0x20 ADD PUSH2 0x75 SWAP5 SWAP4 SWAP3 SWAP2 SWAP1 PUSH2 0x528 JUMP JUMPDEST PUSH1 0x40 MLOAD PUSH1 0x20 DUP2 DUP4 SUB SUB DUP2 MSTORE SWAP1 PUSH1 0x40 MSTORE DUP1 MLOAD SWAP1 PUSH1 0x20 ADD KECCAK256 SWAP1 POP PUSH0 DUP1 JUMPDEST DUP4 DUP2 LT ISZERO PUSH2 0x169 JUMPI PUSH0 PUSH2 0xFA DUP5 DUP8 DUP8 DUP6 DUP2 DUP2 LT PUSH2 0xAF JUMPI PUSH2 0xAF PUSH2 0x55A JUMP JUMPDEST SWAP1 POP PUSH1 0x20 MUL DUP2 ADD SWAP1 PUSH2 0xC1 SWAP2 SWAP1 PUSH2 0x4E5 JUMP JUMPDEST DUP1 DUP1 PUSH1 0x1F ADD PUSH1 0x20 DUP1 SWAP2 DIV MUL PUSH1 0x20 ADD PUSH1 0x40 MLOAD SWAP1 DUP2 ADD PUSH1 0x40 MSTORE DUP1 SWAP4 SWAP3 SWAP2 SWAP1 DUP2 DUP2 MSTORE PUSH1 0x20 ADD DUP4 DUP4 DUP1 DUP3 DUP5 CALLDATACOPY PUSH0 SWAP3 ADD SWAP2 SWAP1 SWAP2 MSTORE POP PUSH2 0x1C9 SWAP3 POP POP POP JUMP JUMPDEST SWAP1 POP PUSH0 JUMPDEST DUP10 DUP2 LT ISZERO PUSH2 0x15F JUMPI DUP2 PUSH1 0x1 PUSH1 0x1 PUSH1 0xA0 SHL SUB AND DUP12 DUP12 DUP4 DUP2 DUP2 LT PUSH2 0x122 JUMPI PUSH2 0x122 PUSH2 0x55A JUMP JUMPDEST SWAP1 POP PUSH1 0x20 MUL ADD PUSH1 0x20 DUP2 ADD SWAP1 PUSH2 0x137 SWAP2 SWAP1 PUSH2 0x4BF JUMP JUMPDEST PUSH1 0x1 PUSH1 0x1 PUSH1 0xA0 SHL SUB AND SUB PUSH2 0x157 JUMPI DUP4 PUSH2 0x14F DUP2 PUSH2 0x56E JUMP JUMPDEST SWAP5 POP POP PUSH2 0x15F JUMP JUMPDEST PUSH1 0x1 ADD PUSH2 0xFE JUMP JUMPDEST POP POP PUSH1 0x1 ADD PUSH2 0x90 JUMP JUMPDEST POP DUP6 DUP2 LT ISZERO PUSH2 0x1BF JUMPI PUSH1 0x40 MLOAD PUSH3 0x461BCD PUSH1 0xE5 SHL DUP2 MSTORE PUSH1 0x20 PUSH1 0x4 DUP3 ADD MSTORE PUSH1 0x1B PUSH1 0x24 DUP3 ADD MSTORE PUSH32 0x4E6F7420656E6F7567682076616C6964207369676E6174757265730000000000 PUSH1 0x44 DUP3 ADD MSTORE PUSH1 0x64 ADD JUMPDEST PUSH1 0x40 MLOAD DUP1 SWAP2 SUB SWAP1 REVERT JUMPDEST POP POP POP POP POP POP POP POP JUMP JUMPDEST PUSH0 PUSH2 0x1D4 DUP4 DUP4 PUSH2 0x1DB JUMP JUMPDEST SWAP4 SWAP3 POP POP POP JUMP JUMPDEST PUSH0 DUP1 PUSH0 DUP1 PUSH2 0x1E9 DUP7 DUP7 PUSH2 0x203 JUMP JUMPDEST SWAP3 POP SWAP3 POP SWAP3 POP PUSH2 0x1F9 DUP3 DUP3 PUSH2 0x24C JUMP JUMPDEST POP SWAP1 SWAP5 SWAP4 POP POP POP POP JUMP JUMPDEST PUSH0 DUP1 PUSH0 DUP4 MLOAD PUSH1 0x41 SUB PUSH2 0x23A JUMPI PUSH1 0x20 DUP5 ADD MLOAD PUSH1 0x40 DUP6 ADD MLOAD PUSH1 0x60 DUP7 ADD MLOAD PUSH0 BYTE PUSH2 0x22C DUP9 DUP3 DUP6 DUP6 PUSH2 0x308 JUMP JUMPDEST SWAP6 POP SWAP6 POP SWAP6 POP POP POP POP PUSH2 0x245 JUMP JUMPDEST POP POP DUP2 MLOAD PUSH0 SWAP2 POP PUSH1 0x2 SWAP1 JUMPDEST SWAP3 POP SWAP3 POP SWAP3 JUMP JUMPDEST PUSH0 DUP3 PUSH1 0x3 DUP2 GT ISZERO PUSH2 0x25F JUMPI PUSH2 0x25F PUSH2 0x592 JUMP JUMPDEST SUB PUSH2 0x268 JUMPI POP POP JUMP JUMPDEST PUSH1 0x1 DUP3 PUSH1 0x3 DUP2 GT ISZERO PUSH2 0x27C JUMPI PUSH2 0x27C PUSH2 0x592 JUMP JUMPDEST SUB PUSH2 0x29A JUMPI PUSH1 0x40 MLOAD PUSH4 0xF645EEDF PUSH1 0xE0 SHL DUP2 MSTORE PUSH1 0x4 ADD PUSH1 0x40 MLOAD DUP1 SWAP2 SUB SWAP1 REVERT JUMPDEST PUSH1 0x2 DUP3 PUSH1 0x3 DUP2 GT ISZERO PUSH2 0x2AE JUMPI PUSH2 0x2AE PUSH2 0x592 JUMP JUMPDEST SUB PUSH2 0x2CF JUMPI PUSH1 0x40 MLOAD PUSH4 0xFCE698F7 PUSH1 0xE0 SHL DUP2 MSTORE PUSH1 0x4 DUP2 ADD DUP3 SWAP1 MSTORE PUSH1 0x24 ADD PUSH2 0x1B6 JUMP JUMPDEST PUSH1 0x3 DUP3 PUSH1 0x3 DUP2 GT ISZERO PUSH2 0x2E3 JUMPI PUSH2 0x2E3 PUSH2 0x592 JUMP JUMPDEST SUB PUSH2 0x304 JUMPI PUSH1 0x40 MLOAD PUSH4 0x35E2F383 PUSH1 0xE2 SHL DUP2 MSTORE PUSH1 0x4 DUP2 ADD DUP3 SWAP1 MSTORE PUSH1 0x24 ADD PUSH2 0x1B6 JUMP JUMPDEST POP POP JUMP JUMPDEST PUSH0 DUP1 DUP1 PUSH32 0x7FFFFFFFFFFFFFFFFFFFFFFFFFFFFFFF5D576E7357A4501DDFE92F46681B20A0 DUP5 GT ISZERO PUSH2 0x341 JUMPI POP PUSH0 SWAP2 POP PUSH1 0x3 SWAP1 POP DUP3 PUSH2 0x3C6 JUMP JUMPDEST PUSH1 0x40 DUP1 MLOAD PUSH0 DUP1 DUP3 MSTORE PUSH1 0x20 DUP3 ADD DUP1 DUP5 MSTORE DUP11 SWAP1 MSTORE PUSH1 0xFF DUP10 AND SWAP3 DUP3 ADD SWAP3 SWAP1 SWAP3 MSTORE PUSH1 0x60 DUP2 ADD DUP8 SWAP1 MSTORE PUSH1 0x80 DUP2 ADD DUP7 SWAP1 MSTORE PUSH1 0x1 SWAP1 PUSH1 0xA0 ADD PUSH1 0x20 PUSH1 0x40 MLOAD PUSH1 0x20 DUP2 SUB SWAP1 DUP1 DUP5 SUB SWAP1 DUP6 GAS STATICCALL ISZERO DUP1 ISZERO PUSH2 0x392 JUMPI RETURNDATASIZE PUSH0 DUP1 RETURNDATACOPY RETURNDATASIZE PUSH0 REVERT JUMPDEST POP POP PUSH1 0x40 MLOAD PUSH1 0x1F NOT ADD MLOAD SWAP2 POP POP PUSH1 0x1 PUSH1 0x1 PUSH1 0xA0 SHL SUB DUP2 AND PUSH2 0x3BD JUMPI POP PUSH0 SWAP3 POP PUSH1 0x1 SWAP2 POP DUP3 SWAP1 POP PUSH2 0x3C6 JUMP JUMPDEST SWAP3 POP PUSH0 SWAP2 POP DUP2 SWAP1 POP JUMPDEST SWAP5 POP SWAP5 POP SWAP5 SWAP2 POP POP JUMP JUMPDEST PUSH0 DUP1 DUP4 PUSH1 0x1F DUP5 ADD SLT PUSH2 0x3E0 JUMPI PUSH0 DUP1 REVERT JUMPDEST POP DUP2 CALLDATALOAD PUSH8 0xFFFFFFFFFFFFFFFF DUP2 GT ISZERO PUSH2 0x3F7 JUMPI PUSH0 DUP1 REVERT JUMPDEST PUSH1 0x20 DUP4 ADD SWAP2 POP DUP4 PUSH1 0x20 DUP3 PUSH1 0x5 SHL DUP6 ADD ADD GT ISZERO PUSH2 0x411 JUMPI PUSH0 DUP1 REVERT JUMPDEST SWAP3 POP SWAP3 SWAP1 POP JUMP JUMPDEST PUSH0 DUP1 PUSH0 DUP1 PUSH0 DUP1 PUSH1 0x80 DUP8 DUP10 SUB SLT ISZERO PUSH2 0x42D JUMPI PUSH0 DUP1 REVERT JUMPDEST DUP7 CALLDATALOAD PUSH8 0xFFFFFFFFFFFFFFFF DUP2 GT ISZERO PUSH2 0x443 JUMPI PUSH0 DUP1 REVERT JUMPDEST PUSH2 0x44F DUP10 DUP3 DUP11 ADD PUSH2 0x3D0 JUMP JUMPDEST SWAP1 SWAP8 POP SWAP6 POP POP PUSH1 0x20 DUP8 ADD CALLDATALOAD SWAP4 POP PUSH1 0x40 DUP8 ADD CALLDATALOAD PUSH8 0xFFFFFFFFFFFFFFFF DUP2 GT ISZERO PUSH2 0x475 JUMPI PUSH0 DUP1 REVERT JUMPDEST DUP8 ADD PUSH1 0x60 DUP2 DUP11 SUB SLT ISZERO PUSH2 0x486 JUMPI PUSH0 DUP1 REVERT JUMPDEST SWAP3 POP PUSH1 0x60 DUP8 ADD CALLDATALOAD PUSH8 0xFFFFFFFFFFFFFFFF DUP2 GT ISZERO PUSH2 0x4A1 JUMPI PUSH0 DUP1 REVERT JUMPDEST PUSH2 0x4AD DUP10 DUP3 DUP11 ADD PUSH2 0x3D0 JUMP JUMPDEST SWAP8 SWAP11 SWAP7 SWAP10 POP SWAP5 SWAP8 POP SWAP3 SWAP6 SWAP4 SWAP5 SWAP3 POP POP POP JUMP JUMPDEST PUSH0 PUSH1 0x20 DUP3 DUP5 SUB SLT ISZERO PUSH2 0x4CF JUMPI PUSH0 DUP1 REVERT JUMPDEST DUP2 CALLDATALOAD PUSH1 0x1 PUSH1 0x1 PUSH1 0xA0 SHL SUB DUP2 AND DUP2 EQ PUSH2 0x1D4 JUMPI PUSH0 DUP1 REVERT JUMPDEST PUSH0 DUP1 DUP4 CALLDATALOAD PUSH1 0x1E NOT DUP5 CALLDATASIZE SUB ADD DUP2 SLT PUSH2 0x4FA JUMPI PUSH0 DUP1 REVERT JUMPDEST DUP4 ADD DUP1 CALLDATALOAD SWAP2 POP PUSH8 0xFFFFFFFFFFFFFFFF DUP3 GT ISZERO PUSH2 0x514 JUMPI PUSH0 DUP1 REVERT JUMPDEST PUSH1 0x20 ADD SWAP2 POP CALLDATASIZE DUP2 SWAP1 SUB DUP3 SGT ISZERO PUSH2 0x411 JUMPI PUSH0 DUP1 REVERT JUMPDEST PUSH12 0xFFFFFFFFFFFFFFFFFFFFFFFF NOT DUP6 PUSH1 0x60 SHL AND DUP2 MSTORE DUP4 PUSH1 0x14 DUP3 ADD MSTORE DUP2 DUP4 PUSH1 0x34 DUP4 ADD CALLDATACOPY PUSH0 SWAP2 ADD PUSH1 0x34 ADD SWAP1 DUP2 MSTORE SWAP4 SWAP3 POP POP POP JUMP JUMPDEST PUSH4 0x4E487B71 PUSH1 0xE0 SHL PUSH0 MSTORE PUSH1 0x32 PUSH1 0x4 MSTORE PUSH1 0x24 PUSH0 REVERT JUMPDEST PUSH0 PUSH1 0x1 DUP3 ADD PUSH2 0x58B JUMPI PUSH4 0x4E487B71 PUSH1 0xE0 SHL PUSH0 MSTORE PUSH1 0x11 PUSH1 0x4 MSTORE PUSH1 0x24 PUSH0 REVERT JUMPDEST POP PUSH1 0x1 ADD SWAP1 JUMP JUMPDEST PUSH4 0x4E487B71 PUSH1 0xE0 SHL PUSH0 MSTORE PUSH1 0x21 PUSH1 0x4 MSTORE PUSH1 0x24 PUSH0 REVERT INVALID LOG2 PUSH5 0x6970667358 0x22 SLT KECCAK256 CREATE2 0x25 DUP7 DUP13 PUSH31 0x484EC1A2E43534C816201476F3262F3D7F4FE18A936DDFB7660B7A64736F6C PUSH4 0x4300081A STOP CALLER "
				},
				"gasEstimates": {
					"creation": {
						"codeDepositCost": "300000",
						"executionCost": "335",
						"totalCost": "300335"
					},
					"external": {
						"validate(address[],uint256,(address,uint256,bytes),bytes[])": "infinite"
					},
					"internal": {
						"recover(bytes32,bytes memory)": "infinite"
					}
				},
				"methodIdentifiers": {
					"validate(address[],uint256,(address,uint256,bytes),bytes[])": "93249d16"
				}
			},
			"storageLayout": {
				"storage": [],
				"types": null
			},
			"userdoc": {
				"kind": "user",
				"methods": {},
				"version": 1
			}
		}
	}
}